{
  "address": "0x2F08BEA16F6E7D18475667CE0F8c412463FF7dC3",
  "abi": [
    {
      "inputs": [],
      "stateMutability": "nonpayable",
      "type": "constructor"
    },
    {
      "inputs": [],
      "name": "implementation",
      "outputs": [
        {
          "internalType": "address",
          "name": "",
          "type": "address"
        }
      ],
      "stateMutability": "view",
      "type": "function"
    },
    {
      "inputs": [
        {
          "internalType": "address",
          "name": "_dao",
          "type": "address"
        },
        {
          "internalType": "bytes",
          "name": "_data",
          "type": "bytes"
        }
      ],
      "name": "prepareInstallation",
      "outputs": [
        {
          "internalType": "address",
          "name": "plugin",
          "type": "address"
        },
        {
          "components": [
            {
              "internalType": "address[]",
              "name": "helpers",
              "type": "address[]"
            },
            {
              "components": [
                {
                  "internalType": "enum PermissionLib.Operation",
                  "name": "operation",
                  "type": "uint8"
                },
                {
                  "internalType": "address",
                  "name": "where",
                  "type": "address"
                },
                {
                  "internalType": "address",
                  "name": "who",
                  "type": "address"
                },
                {
                  "internalType": "address",
                  "name": "condition",
                  "type": "address"
                },
                {
                  "internalType": "bytes32",
                  "name": "permissionId",
                  "type": "bytes32"
                }
              ],
              "internalType": "struct PermissionLib.MultiTargetPermission[]",
              "name": "permissions",
              "type": "tuple[]"
            }
          ],
          "internalType": "struct IPluginSetup.PreparedSetupData",
          "name": "preparedSetupData",
          "type": "tuple"
        }
      ],
      "stateMutability": "nonpayable",
      "type": "function"
    },
    {
      "inputs": [
        {
          "internalType": "address",
          "name": "_dao",
          "type": "address"
        },
        {
          "components": [
            {
              "internalType": "address",
              "name": "plugin",
              "type": "address"
            },
            {
              "internalType": "address[]",
              "name": "currentHelpers",
              "type": "address[]"
            },
            {
              "internalType": "bytes",
              "name": "data",
              "type": "bytes"
            }
          ],
          "internalType": "struct IPluginSetup.SetupPayload",
          "name": "_payload",
          "type": "tuple"
        }
      ],
      "name": "prepareUninstallation",
      "outputs": [
        {
          "components": [
            {
              "internalType": "enum PermissionLib.Operation",
              "name": "operation",
              "type": "uint8"
            },
            {
              "internalType": "address",
              "name": "where",
              "type": "address"
            },
            {
              "internalType": "address",
              "name": "who",
              "type": "address"
            },
            {
              "internalType": "address",
              "name": "condition",
              "type": "address"
            },
            {
              "internalType": "bytes32",
              "name": "permissionId",
              "type": "bytes32"
            }
          ],
          "internalType": "struct PermissionLib.MultiTargetPermission[]",
          "name": "permissions",
          "type": "tuple[]"
        }
      ],
      "stateMutability": "nonpayable",
      "type": "function"
    },
    {
      "inputs": [
        {
          "internalType": "address",
          "name": "_dao",
          "type": "address"
        },
        {
          "internalType": "uint16",
          "name": "_currentBuild",
          "type": "uint16"
        },
        {
          "components": [
            {
              "internalType": "address",
              "name": "plugin",
              "type": "address"
            },
            {
              "internalType": "address[]",
              "name": "currentHelpers",
              "type": "address[]"
            },
            {
              "internalType": "bytes",
              "name": "data",
              "type": "bytes"
            }
          ],
          "internalType": "struct IPluginSetup.SetupPayload",
          "name": "_payload",
          "type": "tuple"
        }
      ],
      "name": "prepareUpdate",
      "outputs": [
        {
          "internalType": "bytes",
          "name": "initData",
          "type": "bytes"
        },
        {
          "components": [
            {
              "internalType": "address[]",
              "name": "helpers",
              "type": "address[]"
            },
            {
              "components": [
                {
                  "internalType": "enum PermissionLib.Operation",
                  "name": "operation",
                  "type": "uint8"
                },
                {
                  "internalType": "address",
                  "name": "where",
                  "type": "address"
                },
                {
                  "internalType": "address",
                  "name": "who",
                  "type": "address"
                },
                {
                  "internalType": "address",
                  "name": "condition",
                  "type": "address"
                },
                {
                  "internalType": "bytes32",
                  "name": "permissionId",
                  "type": "bytes32"
                }
              ],
              "internalType": "struct PermissionLib.MultiTargetPermission[]",
              "name": "permissions",
              "type": "tuple[]"
            }
          ],
          "internalType": "struct IPluginSetup.PreparedSetupData",
          "name": "preparedSetupData",
          "type": "tuple"
        }
      ],
      "stateMutability": "nonpayable",
      "type": "function"
    },
    {
      "inputs": [
        {
          "internalType": "bytes4",
          "name": "_interfaceId",
          "type": "bytes4"
        }
      ],
      "name": "supportsInterface",
      "outputs": [
        {
          "internalType": "bool",
          "name": "",
          "type": "bool"
        }
      ],
      "stateMutability": "view",
      "type": "function"
    }
  ],
  "transactionHash": "0xcb2d4783cd4b7844582b55b38fb936650b946096f604541b2fc6066451f4c69d",
  "args": [],
  "numDeployments": 1,
  "solcInputHash": "9cbab0dcb2e7f8a8569477dc5d040e05",
  "bytecode": "0x60a060405234801561001057600080fd5b5060405161001d9061004b565b604051809103906000f080158015610039573d6000803e3d6000fd5b506001600160a01b0316608052610058565b6136a080611e7283390190565b608051611db36100bf6000396000818160ad01528181610259015281816103530152818161044d015281816105470152818161064101528181610758015281816108830152818161096d01528181610a5701528181610b410152610c2b0152611db36000f3fe60806040523480156200001157600080fd5b50600436106200006f5760003560e01c80639cb0a12411620000565780639cb0a12414620000d8578063a8a9c29e14620000fe578063f10832f1146200012557600080fd5b806301ffc9a714620000745780635c60da1b14620000a0575b600080fd5b6200008b6200008536600462000d4e565b6200014c565b60405190151581526020015b60405180910390f35b6040516001600160a01b037f000000000000000000000000000000000000000000000000000000000000000016815260200162000097565b620000ef620000e936600462000dac565b62000184565b60405162000097919062000e69565b620001156200010f36600462000eb6565b620006f2565b6040516200009792919062001007565b6200013c6200013636600462001039565b6200071a565b60405162000097929190620010c5565b60006001600160e01b0319821663099718b560e41b14806200017e57506301ffc9a760e01b6001600160e01b03198316145b92915050565b606060008080620001996040860186620010f1565b810190620001a89190620013a6565b60408051600480825260a08201909252939650919450925060009190816020015b6040805160a081018252600080825260208083018290529282018190526060820181905260808201528252600019909201910181620001c95750506040805160a08101909152600181529091506020808201906200022a90890189620014ce565b6001600160a01b03168152602001886001600160a01b0316815260200160006001600160a01b031681526020017f00000000000000000000000000000000000000000000000000000000000000006001600160a01b031663596408076040518163ffffffff1660e01b8152600401602060405180830381865afa158015620002b6573d6000803e3d6000fd5b505050506040513d601f19601f82011682018060405250810190620002dc9190620014ee565b81525081600081518110620002f557620002f562001508565b60209081029190910101526040805160a0810190915280600181526020908101906200032490890189620014ce565b6001600160a01b03168152602001886001600160a01b0316815260200160006001600160a01b031681526020017f00000000000000000000000000000000000000000000000000000000000000006001600160a01b0316634aff13ea6040518163ffffffff1660e01b8152600401602060405180830381865afa158015620003b0573d6000803e3d6000fd5b505050506040513d601f19601f82011682018060405250810190620003d69190620014ee565b81525081600181518110620003ef57620003ef62001508565b60209081029190910101526040805160a0810190915280600181526020908101906200041e90890189620014ce565b6001600160a01b03168152602001886001600160a01b0316815260200160006001600160a01b031681526020017f00000000000000000000000000000000000000000000000000000000000000006001600160a01b0316639a80b57c6040518163ffffffff1660e01b8152600401602060405180830381865afa158015620004aa573d6000803e3d6000fd5b505050506040513d601f19601f82011682018060405250810190620004d09190620014ee565b81525081600281518110620004e957620004e962001508565b60209081029190910101526040805160a0810190915280600181526020908101906200051890890189620014ce565b6001600160a01b03168152602001886001600160a01b0316815260200160006001600160a01b031681526020017f00000000000000000000000000000000000000000000000000000000000000006001600160a01b03166330b17b036040518163ffffffff1660e01b8152600401602060405180830381865afa158015620005a4573d6000803e3d6000fd5b505050506040513d601f19601f82011682018060405250810190620005ca9190620014ee565b81525081600281518110620005e357620005e362001508565b60209081029190910101526040805160a0810190915280600181526020908101906200061290890189620014ce565b6001600160a01b03168152602001886001600160a01b0316815260200160006001600160a01b031681526020017f00000000000000000000000000000000000000000000000000000000000000006001600160a01b0316638add11946040518163ffffffff1660e01b8152600401602060405180830381865afa1580156200069e573d6000803e3d6000fd5b505050506040513d601f19601f82011682018060405250810190620006c49190620014ee565b81525081600381518110620006dd57620006dd62001508565b60200260200101819052505050505092915050565b606062000712604051806040016040528060608152602001606081525090565b935093915050565b60006200073a604051806040016040528060608152602001606081525090565b600080806200074c86880188620013a6565b925092509250620007e57f000000000000000000000000000000000000000000000000000000000000000063c7c360c060e01b8a868686604051602401620007989493929190620015e5565b60408051601f198184030181529190526020810180517bffffffffffffffffffffffffffffffffffffffffffffffffffffffff166001600160e01b03199093169290921790915262000ce7565b60408051600480825260a0820190925291965060009190816020015b6040805160a08101825260008082526020808301829052928201819052606082018190526080820152825260001990920191018162000801579050506040805160a081019091529091508060008152602001876001600160a01b031681526020018a6001600160a01b0316815260200160006001600160a01b031681526020017f00000000000000000000000000000000000000000000000000000000000000006001600160a01b031663596408076040518163ffffffff1660e01b8152600401602060405180830381865afa158015620008e0573d6000803e3d6000fd5b505050506040513d601f19601f82011682018060405250810190620009069190620014ee565b815250816000815181106200091f576200091f62001508565b60209081029190910101526040805160a081019091528060008152602001876001600160a01b031681526020018a6001600160a01b0316815260200160006001600160a01b031681526020017f00000000000000000000000000000000000000000000000000000000000000006001600160a01b0316634aff13ea6040518163ffffffff1660e01b8152600401602060405180830381865afa158015620009ca573d6000803e3d6000fd5b505050506040513d601f19601f82011682018060405250810190620009f09190620014ee565b8152508160018151811062000a095762000a0962001508565b60209081029190910101526040805160a081019091528060008152602001876001600160a01b031681526020018a6001600160a01b0316815260200160006001600160a01b031681526020017f00000000000000000000000000000000000000000000000000000000000000006001600160a01b0316639a80b57c6040518163ffffffff1660e01b8152600401602060405180830381865afa15801562000ab4573d6000803e3d6000fd5b505050506040513d601f19601f8201168201806040525081019062000ada9190620014ee565b8152508160028151811062000af35762000af362001508565b60209081029190910101526040805160a081019091528060008152602001876001600160a01b031681526020018a6001600160a01b0316815260200160006001600160a01b031681526020017f00000000000000000000000000000000000000000000000000000000000000006001600160a01b03166330b17b036040518163ffffffff1660e01b8152600401602060405180830381865afa15801562000b9e573d6000803e3d6000fd5b505050506040513d601f19601f8201168201806040525081019062000bc49190620014ee565b8152508160028151811062000bdd5762000bdd62001508565b60209081029190910101526040805160a081019091528060008152602001876001600160a01b031681526020018a6001600160a01b0316815260200160006001600160a01b031681526020017f00000000000000000000000000000000000000000000000000000000000000006001600160a01b0316638add11946040518163ffffffff1660e01b8152600401602060405180830381865afa15801562000c88573d6000803e3d6000fd5b505050506040513d601f19601f8201168201806040525081019062000cae9190620014ee565b8152508160038151811062000cc75762000cc762001508565b602002602001018190525080856020018190525050505050935093915050565b600062000cf5838362000cfc565b9392505050565b6000828260405162000d0e9062000d40565b62000d1b92919062001684565b604051809103906000f08015801562000d38573d6000803e3d6000fd5b509392505050565b6106fe80620016a983390190565b60006020828403121562000d6157600080fd5b81356001600160e01b03198116811462000cf557600080fd5b6001600160a01b038116811462000d9057600080fd5b50565b60006060828403121562000da657600080fd5b50919050565b6000806040838503121562000dc057600080fd5b823562000dcd8162000d7a565b9150602083013567ffffffffffffffff81111562000dea57600080fd5b62000df88582860162000d93565b9150509250929050565b600081516003811062000e2557634e487b7160e01b600052602160045260246000fd5b8352506020818101516001600160a01b0390811691840191909152604080830151821690840152606080830151909116908301526080908101519082015260a00190565b6020808252825182820181905260009190848201906040850190845b8181101562000eaa5762000e9b83855162000e02565b93850193925060010162000e85565b50909695505050505050565b60008060006060848603121562000ecc57600080fd5b833562000ed98162000d7a565b9250602084013561ffff8116811462000ef157600080fd5b9150604084013567ffffffffffffffff81111562000f0e57600080fd5b62000f1c8682870162000d93565b9150509250925092565b6000815180845260005b8181101562000f4e5760208185018101518683018201520162000f30565b506000602082860101526020601f19601f83011685010191505092915050565b805160408084528151908401819052600091602091908201906060860190845b8181101562000fb55783516001600160a01b03168352928401929184019160010162000f8e565b50508483015186820387850152805180835290840192506000918401905b8083101562000ffc5762000fe982855162000e02565b9150848401935060018301925062000fd3565b509695505050505050565b6040815260006200101c604083018562000f26565b828103602084015262001030818562000f6e565b95945050505050565b6000806000604084860312156200104f57600080fd5b83356200105c8162000d7a565b9250602084013567ffffffffffffffff808211156200107a57600080fd5b818601915086601f8301126200108f57600080fd5b8135818111156200109f57600080fd5b876020828501011115620010b257600080fd5b6020830194508093505050509250925092565b6001600160a01b0383168152604060208201526000620010e9604083018462000f6e565b949350505050565b6000808335601e198436030181126200110957600080fd5b83018035915067ffffffffffffffff8211156200112557600080fd5b6020019150368190038213156200113b57600080fd5b9250929050565b634e487b7160e01b600052604160045260246000fd5b60405160a0810167ffffffffffffffff811182821017156200117e576200117e62001142565b60405290565b6040805190810167ffffffffffffffff811182821017156200117e576200117e62001142565b604051601f8201601f1916810167ffffffffffffffff81118282101715620011d657620011d662001142565b604052919050565b600067ffffffffffffffff821115620011fb57620011fb62001142565b5060051b60200190565b803563ffffffff811681146200121a57600080fd5b919050565b803567ffffffffffffffff811681146200121a57600080fd5b600082601f8301126200124a57600080fd5b81356020620012636200125d83620011de565b620011aa565b82815260a092830285018201928282019190878511156200128357600080fd5b8387015b85811015620012fe5781818a031215620012a15760008081fd5b620012ab62001158565b81358152620012bc86830162001205565b868201526040620012cf81840162001205565b908201526060620012e28382016200121f565b9082015260808281013590820152845292840192810162001287565b5090979650505050505050565b600082601f8301126200131d57600080fd5b81356020620013306200125d83620011de565b82815260069290921b840181019181810190868411156200135057600080fd5b8286015b8481101562000ffc57604081890312156200136f5760008081fd5b6200137962001184565b62001384826200121f565b8152620013938583016200121f565b8186015283529183019160400162001354565b600080600060608486031215620013bc57600080fd5b833567ffffffffffffffff80821115620013d557600080fd5b9085019060408288031215620013ea57600080fd5b620013f462001184565b8235620014018162000d7a565b8152602083810135838111156200141757600080fd5b80850194505088601f8501126200142d57600080fd5b83356200143e6200125d82620011de565b81815260059190911b8501820190828101908b8311156200145e57600080fd5b958301955b828710156200147e5786358252958301959083019062001463565b8484015250919650870135925050808211156200149a57600080fd5b620014a88783880162001238565b93506040860135915080821115620014bf57600080fd5b5062000f1c868287016200130b565b600060208284031215620014e157600080fd5b813562000cf58162000d7a565b6000602082840312156200150157600080fd5b5051919050565b634e487b7160e01b600052603260045260246000fd5b600081518084526020808501945080840160005b838110156200158f578151805188528381015163ffffffff908116858a01526040808301519091169089015260608082015167ffffffffffffffff16908901526080908101519088015260a0909601959082019060010162001532565b509495945050505050565b600081518084526020808501945080840160005b838110156200158f578151805167ffffffffffffffff908116895290840151168388015260409096019590820190600101620015ae565b6001600160a01b0385811682526080602080840182905286519092169083015284810151604060a0840152805160c084018190526000929182019190839060e08601905b808310156200164b578451825293830193600192909201919083019062001629565b5085810360408701526200166081896200151e565b935050505082810360608401526200167981856200159a565b979650505050505050565b6001600160a01b0383168152604060208201526000620010e9604083018462000f2656fe60806040526040516106fe3803806106fe83398101604081905261002291610319565b61002e82826000610035565b5050610436565b61003e8361006b565b60008251118061004b5750805b156100665761006483836100ab60201b6100291760201c565b505b505050565b610074816100d7565b6040516001600160a01b038216907fbc7cd75a20ee27fd9adebab32041f755214dbc6bffa90cc0225b39da2e5c2d3b90600090a250565b60606100d083836040518060600160405280602781526020016106d7602791396101a9565b9392505050565b6100ea8161022260201b6100551760201c565b6101515760405162461bcd60e51b815260206004820152602d60248201527f455243313936373a206e657720696d706c656d656e746174696f6e206973206e60448201526c1bdd08184818dbdb9d1c9858dd609a1b60648201526084015b60405180910390fd5b806101887f360894a13ba1a3210667c828492db98dca3e2076cc3735a920a3ca505d382bbc60001b61023160201b6100641760201c565b80546001600160a01b0319166001600160a01b039290921691909117905550565b6060600080856001600160a01b0316856040516101c691906103e7565b600060405180830381855af49150503d8060008114610201576040519150601f19603f3d011682016040523d82523d6000602084013e610206565b606091505b50909250905061021886838387610234565b9695505050505050565b6001600160a01b03163b151590565b90565b606083156102a357825160000361029c576001600160a01b0385163b61029c5760405162461bcd60e51b815260206004820152601d60248201527f416464726573733a2063616c6c20746f206e6f6e2d636f6e74726163740000006044820152606401610148565b50816102ad565b6102ad83836102b5565b949350505050565b8151156102c55781518083602001fd5b8060405162461bcd60e51b81526004016101489190610403565b634e487b7160e01b600052604160045260246000fd5b60005b838110156103105781810151838201526020016102f8565b50506000910152565b6000806040838503121561032c57600080fd5b82516001600160a01b038116811461034357600080fd5b60208401519092506001600160401b038082111561036057600080fd5b818501915085601f83011261037457600080fd5b815181811115610386576103866102df565b604051601f8201601f19908116603f011681019083821181831017156103ae576103ae6102df565b816040528281528860208487010111156103c757600080fd5b6103d88360208301602088016102f5565b80955050505050509250929050565b600082516103f98184602087016102f5565b9190910192915050565b60208152600082518060208401526104228160408501602087016102f5565b601f01601f19169190910160400192915050565b610292806104456000396000f3fe60806040523661001357610011610017565b005b6100115b610027610022610067565b61009f565b565b606061004e838360405180606001604052806027815260200161025f602791396100c3565b9392505050565b6001600160a01b03163b151590565b90565b600061009a7f360894a13ba1a3210667c828492db98dca3e2076cc3735a920a3ca505d382bbc546001600160a01b031690565b905090565b3660008037600080366000845af43d6000803e8080156100be573d6000f35b3d6000fd5b6060600080856001600160a01b0316856040516100e0919061020f565b600060405180830381855af49150503d806000811461011b576040519150601f19603f3d011682016040523d82523d6000602084013e610120565b606091505b50915091506101318683838761013b565b9695505050505050565b606083156101af5782516000036101a8576001600160a01b0385163b6101a85760405162461bcd60e51b815260206004820152601d60248201527f416464726573733a2063616c6c20746f206e6f6e2d636f6e747261637400000060448201526064015b60405180910390fd5b50816101b9565b6101b983836101c1565b949350505050565b8151156101d15781518083602001fd5b8060405162461bcd60e51b815260040161019f919061022b565b60005b838110156102065781810151838201526020016101ee565b50506000910152565b600082516102218184602087016101eb565b9190910192915050565b602081526000825180602084015261024a8160408501602087016101eb565b601f01601f1916919091016040019291505056fe416464726573733a206c6f772d6c6576656c2064656c65676174652063616c6c206661696c6564a164736f6c6343000811000a416464726573733a206c6f772d6c6576656c2064656c65676174652063616c6c206661696c6564a164736f6c6343000811000a610100604052306080527fde8db4b946c6ad06fb2040e2b4c668003853478bcf94a1713080aea440557f6b60a0527f3e4087f88ad74410632842184168eee34dd747baae53b094220a0b34033f174860c0527fad105c392496aa20b05821e4a7bcc8e9d2d73e1029a800cc036b1bd21d2e96b460e0523480156200008257600080fd5b506200008d62000093565b62000154565b600054610100900460ff1615620001005760405162461bcd60e51b815260206004820152602760248201527f496e697469616c697a61626c653a20636f6e747261637420697320696e697469604482015266616c697a696e6760c81b606482015260840160405180910390fd5b60005460ff9081161462000152576000805460ff191660ff9081179091556040519081527f7f26b83ff96e1f2b6a682f133852f6798a09c465da95921460cefb38474024989060200160405180910390a15b565b60805160a05160c05160e0516134e8620001b8600039600081816106c90152611d6b015260006104b50152600081816106330152611cc4015260008181610c6f01528181610cf901528181610def01528181610e740152610f5e01526134e86000f3fe6080604052600436106101fe5760003560e01c80635c60da1b1161011d578063c9c4bfca116100b0578063e180ba2e1161007f578063f683264311610064578063f683264314610675578063fe0d94c114610697578063feb85a94146106b757600080fd5b8063e180ba2e14610621578063e2a7c0b21461065557600080fd5b8063c9c4bfca146105b0578063cc88c72f146105e4578063d0e30db014610604578063da35c6641461060c57600080fd5b80639a80b57c116100ec5780639a80b57c1461050b578063bfaa8b551461053f578063c7c360c01461055f578063c7f758a81461057f57600080fd5b80635c60da1b1461046e578063697d43cc1461048357806369b845d9146104a35780638add1194146104d757600080fd5b80633659cfe6116101955780634f1ef286116101645780634f1ef286146103fb57806352d1902d1461040e578063542bbaa314610423578063596408071461043a57600080fd5b80633659cfe6146103595780634162169f1461037957806341de6830146103ab5780634aff13ea146103c757600080fd5b80631b174004116101d15780631b174004146102b757806325c7ef92146102d75780632922e150146102f757806330b17b031461031757600080fd5b806301ffc9a71461020357806305dbfe31146102395780630910be0d1461025b5780631311533b14610295575b600080fd5b34801561020f57600080fd5b5061022461021e36600461271e565b50600090565b60405190151581526020015b60405180910390f35b34801561024557600080fd5b50610259610254366004612775565b6106eb565b005b34801561026757600080fd5b50610224610276366004612775565b6001600160a01b03166000908152610166602052604090205460ff1690565b3480156102a157600080fd5b506102aa610776565b6040516102309190612792565b3480156102c357600080fd5b506102246102d23660046127ef565b6107ee565b3480156102e357600080fd5b506102596102f2366004612829565b610879565b34801561030357600080fd5b506102596103123660046128c8565b610b1f565b34801561032357600080fd5b5061034b7f3e817d74fab4140ac448427adb4a8ec2de3ccdc8c216716abbe97abd217bc4fe81565b604051908152602001610230565b34801561036557600080fd5b50610259610374366004612775565b610c65565b34801561038557600080fd5b5060c9546001600160a01b03165b6040516001600160a01b039091168152602001610230565b3480156103b757600080fd5b506000604051610230919061293e565b3480156103d357600080fd5b5061034b7f20940ae9d4a71b0d85c0ed553f130ef68611db943ff527288a73bf4c3f2879ed81565b6102596104093660046129c0565b610de5565b34801561041a57600080fd5b5061034b610f51565b34801561042f57600080fd5b50436000190161034b565b34801561044657600080fd5b5061034b7f055ed00f1d6dc426e421149121bc5f54154ca668ad3177abbf903f71acd984e781565b34801561047a57600080fd5b50610393611017565b34801561048f57600080fd5b5061025961049e366004612a98565b61104f565b3480156104af57600080fd5b5061034b7f000000000000000000000000000000000000000000000000000000000000000081565b3480156104e357600080fd5b5061034b7f880444d6999ef9b31619992bf8453b5c7a6f8d8fdc0027ff2412d510e11c903981565b34801561051757600080fd5b5061034b7f301983b1649fc4c5ee9a248e8d1da1b69c78ac5ce158d48e39ecd2b468ba434281565b34801561054b57600080fd5b5061025961055a366004612775565b611095565b34801561056b57600080fd5b5061025961057a366004612ace565b6110f2565b34801561058b57600080fd5b5061059f61059a366004612bae565b61145e565b604051610230959493929190612c88565b3480156105bc57600080fd5b5061034b7f821b6e3a557148015a918c89e5d092e878a69854a2d1a410635f771bd5a8a3f581565b3480156105f057600080fd5b5061034b6105ff366004612d15565b61164b565b610224611892565b34801561061857600080fd5b5061034b611947565b34801561062d57600080fd5b5061034b7f000000000000000000000000000000000000000000000000000000000000000081565b34801561066157600080fd5b5061034b610670366004612bae565b611953565b34801561068157600080fd5b5061068a611975565b6040516102309190612dd3565b3480156106a357600080fd5b506102596106b2366004612bae565b611a02565b3480156106c357600080fd5b5061034b7f000000000000000000000000000000000000000000000000000000000000000081565b60c9547f055ed00f1d6dc426e421149121bc5f54154ca668ad3177abbf903f71acd984e790610729906001600160a01b031630335b84600036611b5a565b6001600160a01b0382166000908152610166602052604090205460ff161561075057600080fd5b506001600160a01b0316600090815261016660205260409020805460ff19166001179055565b6060610168805480602002602001604051908101604052809291908181526020016000905b828210156107e5576000848152602090819020604080518082019091529084015467ffffffffffffffff8082168352600160401b909104168183015282526001909201910161079b565b50505050905090565b6000805b6001600160a01b0384166000908152610165602052604090205481101561086d576001600160a01b03841660009081526101656020526040902080548491908390811061084157610841612e34565b90600052602060002001540361085b576001915050610873565b8061086581612e60565b9150506107f2565b50600090505b92915050565b336000808080806108898a61145e565b945094509450945094508461089d57600080fd5b60006108a7611975565b90506108b3878c6107ee565b156108bd57600080fd5b6108c8876000611c16565b6108d157600080fd5b6108db8a88611cab565b6108e457600080fd5b6001600160a01b038716600090815261016560209081526040808320805460018082018355918552838520018f90558d8452610162835292819020815160a081018352815481529381015463ffffffff8082168686015264010000000082041692850192909252600160401b90910467ffffffffffffffff16606084015260029081015460808401529061097a908c018c612e79565b600381111561098b5761098b61290a565b036109f957806080015161016360008d815260200190815260200160002060008e8152602001908152602001600020600201546109c89190612e9a565b61016360008d815260200190815260200160002060008e815260200190815260200160002060020181905550610b11565b6003610a0860208c018c612e79565b6003811115610a1957610a1961290a565b03610a8757806080015161016360008d815260200190815260200160002060008e815260200190815260200160002060030154610a569190612e9a565b61016360008d815260200190815260200160002060008e815260200190815260200160002060030181905550610b11565b6001610a9660208c018c612e79565b6003811115610aa757610aa761290a565b03610b1157806080015161016360008d815260200190815260200160002060008e815260200190815260200160002060010154610ae49190612e9a565b61016360008d815260200190815260200160002060008e8152602001908152602001600020600101819055505b505050505050505050505050565b60c9547f20940ae9d4a71b0d85c0ed553f130ef68611db943ff527288a73bf4c3f2879ed90610b58906001600160a01b03163033610720565b60005b82811015610c5f576000848483818110610b7757610b77612e34565b610b8d9260206040909202019081019150612ec3565b90506000858584818110610ba357610ba3612e34565b610bb99260206040909202019081019150612ec3565b610bc69062093a80612ee0565b6040805180820190915267ffffffffffffffff938416815290831660208201908152610168805460018101825560009190915291517f8077777ae4769de06cbfd1c0b8b1f653b51ec156d91a9aca16a4102f19e03d9e909201805491518516600160401b026fffffffffffffffffffffffffffffffff199092169290941691909117179091555080610c5781612e60565b915050610b5b565b50505050565b6001600160a01b037f0000000000000000000000000000000000000000000000000000000000000000163003610cf75760405162461bcd60e51b815260206004820152602c60248201527f46756e6374696f6e206d7573742062652063616c6c6564207468726f7567682060448201526b19195b1959d85d1958d85b1b60a21b60648201526084015b60405180910390fd5b7f00000000000000000000000000000000000000000000000000000000000000006001600160a01b0316610d527f360894a13ba1a3210667c828492db98dca3e2076cc3735a920a3ca505d382bbc546001600160a01b031690565b6001600160a01b031614610dbd5760405162461bcd60e51b815260206004820152602c60248201527f46756e6374696f6e206d7573742062652063616c6c6564207468726f7567682060448201526b6163746976652070726f787960a01b6064820152608401610cee565b610dc681611dc2565b60408051600080825260208201909252610de291839190611dfb565b50565b6001600160a01b037f0000000000000000000000000000000000000000000000000000000000000000163003610e725760405162461bcd60e51b815260206004820152602c60248201527f46756e6374696f6e206d7573742062652063616c6c6564207468726f7567682060448201526b19195b1959d85d1958d85b1b60a21b6064820152608401610cee565b7f00000000000000000000000000000000000000000000000000000000000000006001600160a01b0316610ecd7f360894a13ba1a3210667c828492db98dca3e2076cc3735a920a3ca505d382bbc546001600160a01b031690565b6001600160a01b031614610f385760405162461bcd60e51b815260206004820152602c60248201527f46756e6374696f6e206d7573742062652063616c6c6564207468726f7567682060448201526b6163746976652070726f787960a01b6064820152608401610cee565b610f4182611dc2565b610f4d82826001611dfb565b5050565b6000306001600160a01b037f00000000000000000000000000000000000000000000000000000000000000001614610ff15760405162461bcd60e51b815260206004820152603860248201527f555550535570677261646561626c653a206d757374206e6f742062652063616c60448201527f6c6564207468726f7567682064656c656761746563616c6c00000000000000006064820152608401610cee565b507f360894a13ba1a3210667c828492db98dca3e2076cc3735a920a3ca505d382bbc5b90565b600061104a7f360894a13ba1a3210667c828492db98dca3e2076cc3735a920a3ca505d382bbc546001600160a01b031690565b905090565b60c9547f880444d6999ef9b31619992bf8453b5c7a6f8d8fdc0027ff2412d510e11c903990611088906001600160a01b03163033610720565b610c5f6101608484612687565b60c9547f880444d6999ef9b31619992bf8453b5c7a6f8d8fdc0027ff2412d510e11c9039906110ce906001600160a01b03163033610720565b5061015f80546001600160a01b0319166001600160a01b0392909216919091179055565b600054610100900460ff16158080156111125750600054600160ff909116105b8061112c5750303b15801561112c575060005460ff166001145b61119e5760405162461bcd60e51b815260206004820152602e60248201527f496e697469616c697a61626c653a20636f6e747261637420697320616c72656160448201527f647920696e697469616c697a65640000000000000000000000000000000000006064820152608401610cee565b6000805460ff1916600117905580156111c1576000805461ff0019166101001790555b6111ca87611fa0565b60006111d4611975565b905060006111e56020890189612775565b6001600160a01b0316146111f857600080fd5b6112056020880188612775565b6001600160a01b0316815260005b8381101561131757600085858381811061122f5761122f612e34565b6112459260206040909202019081019150612ec3565b9050600086868481811061125b5761125b612e34565b6112719260206040909202019081019150612ec3565b61127e9062093a80612ee0565b6040805180820190915267ffffffffffffffff938416815290831660208201908152610168805460018101825560009190915291517f8077777ae4769de06cbfd1c0b8b1f653b51ec156d91a9aca16a4102f19e03d9e909201805491518516600160401b026fffffffffffffffffffffffffffffffff19909216929094169190911717909155508061130f81612e60565b915050611213565b5060005b8581101561138b5786868281811061133557611335612e34565b905060a00201610162600089898581811061135257611352612e34565b905060a0020160000135815260200190815260200160002081816113769190612f1e565b5081905061138381612e60565b91505061131b565b506113996020880188612fa5565b808060200260200160405190810160405280939291908181526020018383602002808284376000920191909152505050506020828101829052825161015f80546001600160a01b0319166001600160a01b0390921691909117815582518493919261140a92610160929101906126ce565b50905050508015611455576000805461ff0019169055604051600181527f7f26b83ff96e1f2b6a682f133852f6798a09c465da95921460cefb38474024989060200160405180910390a15b50505050505050565b604080516080810182526000808252602082018190529181018290526060810182905281906000848152610161602052604081206060919061149f81612014565b8154604080516080810190915260018401805493995060ff92831698509092909183911660028111156114d4576114d461290a565b60028111156114e5576114e561290a565b8152905467ffffffffffffffff61010082048116602080850191909152690100000000000000000083048216604080860191909152600160881b9093049091166060909301929092526005840180548251818502810185019093528083529397509092909160009084015b82821015611634576000848152602090819020604080516060810182526003860290920180546001600160a01b03168352600181015493830193909352600283018054929392918401916115a390612fef565b80601f01602080910402602001604051908101604052809291908181526020018280546115cf90612fef565b801561161c5780601f106115f15761010080835404028352916020019161161c565b820191906000526020600020905b8154815290600101906020018083116115ff57829003601f168201915b50505050508152505081526020019060010190611550565b505050509250806006015491505091939590929450565b6101688054600091339160001943019184918790811061166d5761166d612e34565b6000918252602082200154610168805467ffffffffffffffff9092169350908890811061169c5761169c612e34565b600091825260209091200154600160401b900467ffffffffffffffff169050806116c542612089565b67ffffffffffffffff1611156116da57600080fd5b6116ea848d8d85858e8e8d61210d565b6000818152610161602052604090206002810180546001600160a01b0319166001600160a01b03881617905560018101805470ffffffffffffffffffffffffffffffff00191661010067ffffffffffffffff8781169190910270ffffffffffffffff00000000000000000019169190911769010000000000000000009186169190910217905590955061177c84612089565b6001808301805467ffffffffffffffff93909316600160881b027fffffffffffffff0000000000000000ffffffffffffffffffffffffffffffffff8416811782558e93919260ff199091167fffffffffffffff0000000000000000ffffffffffffffffffffffffffffffff0090921691909117908360028111156118025761180261290a565b0217905550861561181557600681018790555b60005b8981101561188157816005018b8b8381811061183657611836612e34565b90506020028101906118489190613029565b81546001810183556000928352602090922090916003020161186a828261308f565b50506001018061187981612e60565b915050611818565b505050505050979650505050505050565b60003334826118a18383611c16565b9050806118ad57600080fd5b6001600160a01b03831660009081526101646020526040812080548492906118d6908490612e9a565b909155505060c9546040516000916001600160a01b03169034908381818185875af1925050503d8060008114611928576040519150601f19603f3d011682016040523d82523d6000602084013e61192d565b606091505b50509050801561193c57600080fd5b600194505050505090565b600061104a61012d5490565b610167818154811061196457600080fd5b600091825260209091200154905081565b60408051808201909152600081526060602082015260408051808201825261015f80546001600160a01b03168252610160805484516020828102820181019096528181529394929383860193909291908301828280156119f457602002820191906000526020600020905b8154815260200190600101908083116119e0575b505050505081525050905090565b600081815261016160205260409020611a1a82612173565b611a2357600080fd5b805460ff19166001178155610c5f611a4360c9546001600160a01b031690565b8383600501805480602002602001604051908101604052809291908181526020016000905b82821015611b4c576000848152602090819020604080516060810182526003860290920180546001600160a01b0316835260018101549383019390935260028301805492939291840191611abb90612fef565b80601f0160208091040260200160405190810160405280929190818152602001828054611ae790612fef565b8015611b345780601f10611b0957610100808354040283529160200191611b34565b820191906000526020600020905b815481529060010190602001808311611b1757829003601f168201915b50505050508152505081526020019060010190611a68565b50505050846006015461225e565b604051637ef7c88360e11b81526001600160a01b0387169063fdef910690611b8e90889088908890889088906004016131dc565b602060405180830381865afa158015611bab573d6000803e3d6000fd5b505050506040513d601f19601f82011682018060405250810190611bcf919061321a565b611c0e57604051630cb6f8ed60e21b81526001600160a01b03808816600483015280871660248301528516604482015260648101849052608401610cee565b505050505050565b600081600003611c24575060005b6000611c2e611975565b60200151905060005b8151811015611ca3576001600160a01b03851660009081526101646020526040812054611c649086612e9a565b905080838381518110611c7957611c79612e34565b602002602001015103611c90576001935050611ca3565b5080611c9b81612e60565b915050611c37565b505092915050565b6000611cb683612314565b611cc257506000610873565b7f00000000000000000000000000000000000000000000000000000000000000008303611d695761015f5460405163d51b9e9360e01b81526001600160a01b0384811660048301529091169063d51b9e9390602401602060405180830381865afa158015611d34573d6000803e3d6000fd5b505050506040513d601f19601f82011682018060405250810190611d58919061321a565b611d6457506000610873565b611db9565b7f00000000000000000000000000000000000000000000000000000000000000008303611db9576001600160a01b0382166000908152610166602052604090205460ff16611db957506000610873565b50600192915050565b60c9547f821b6e3a557148015a918c89e5d092e878a69854a2d1a410635f771bd5a8a3f590610f4d906001600160a01b03163033610720565b7f4910fdfa16fed3260ed0e7147f7cc6da11a60208b5b9406d12a635614ffd91435460ff1615611e3357611e2e8361237a565b505050565b826001600160a01b03166352d1902d6040518163ffffffff1660e01b8152600401602060405180830381865afa925050508015611e8d575060408051601f3d908101601f19168201909252611e8a91810190613237565b60015b611eff5760405162461bcd60e51b815260206004820152602e60248201527f45524331393637557067726164653a206e657720696d706c656d656e7461746960448201527f6f6e206973206e6f7420555550530000000000000000000000000000000000006064820152608401610cee565b7f360894a13ba1a3210667c828492db98dca3e2076cc3735a920a3ca505d382bbc8114611f945760405162461bcd60e51b815260206004820152602960248201527f45524331393637557067726164653a20756e737570706f727465642070726f7860448201527f6961626c655555494400000000000000000000000000000000000000000000006064820152608401610cee565b50611e2e838383612438565b600054610100900460ff1661200b5760405162461bcd60e51b815260206004820152602b60248201527f496e697469616c697a61626c653a20636f6e7472616374206973206e6f74206960448201526a6e697469616c697a696e6760a81b6064820152608401610cee565b610de28161245d565b60008061202042612089565b9050600061202c611975565b600185015490915067ffffffffffffffff80841661010090920416118015906120735750600184015467ffffffffffffffff69010000000000000000009091048116908316105b80156120815750835460ff16155b949350505050565b600067ffffffffffffffff8211156121095760405162461bcd60e51b815260206004820152602660248201527f53616665436173743a2076616c756520646f65736e27742066697420696e203660448201527f34206269747300000000000000000000000000000000000000000000000000006064820152608401610cee565b5090565b60006121176124ea565b9050886001600160a01b0316817fa6c1f8f4276dc3f243459e13b557c84e8f4e90b2e09070bad5f6909cee687c9288888c8c8a8a8a60405161215f9796959493929190613250565b60405180910390a398975050505050505050565b60008181526101616020526040812061218b81612014565b6121955750919050565b60005b6101675481101561225757600061016782815481106121b9576121b9612e34565b6000918252602080832090910154808352610163825260408084208985528352808420815160808101835281548152600180830154828701526002830154828501908152600390930154606083015284875261016290955291909420909201549251909350909163ffffffff640100000000909104161161223d5760019450612242565b600094505b5050808061224f90612e60565b915050612198565b5050919050565b6040516331c6fcc960e21b81526060906000906001600160a01b0387169063c71bf3249061229490889088908890600401613360565b6000604051808303816000875af11580156122b3573d6000803e3d6000fd5b505050506040513d6000823e601f3d908101601f191682016040526122db9190810190613389565b604051919350915085907f712ae1383f79ac853f8d882153778e0260ef8f03b504e2866e0593e04d2b291f90600090a294509492505050565b60008161232357506000919050565b60005b610167548110156123715782610167828154811061234657612346612e34565b90600052602060002001540361235f5750600192915050565b8061236981612e60565b915050612326565b50600092915050565b6001600160a01b0381163b6123f75760405162461bcd60e51b815260206004820152602d60248201527f455243313936373a206e657720696d706c656d656e746174696f6e206973206e60448201527f6f74206120636f6e7472616374000000000000000000000000000000000000006064820152608401610cee565b7f360894a13ba1a3210667c828492db98dca3e2076cc3735a920a3ca505d382bbc80546001600160a01b0319166001600160a01b0392909216919091179055565b61244183612505565b60008251118061244e5750805b15611e2e57610c5f8383612545565b600054610100900460ff166124c85760405162461bcd60e51b815260206004820152602b60248201527f496e697469616c697a61626c653a20636f6e7472616374206973206e6f74206960448201526a6e697469616c697a696e6760a81b6064820152608401610cee565b60c980546001600160a01b0319166001600160a01b0392909216919091179055565b60006124f4611947565b905061101461012d80546001019055565b61250e8161237a565b6040516001600160a01b038216907fbc7cd75a20ee27fd9adebab32041f755214dbc6bffa90cc0225b39da2e5c2d3b90600090a250565b606061256a83836040518060600160405280602781526020016134b560279139612571565b9392505050565b6060600080856001600160a01b03168560405161258e919061348f565b600060405180830381855af49150503d80600081146125c9576040519150601f19603f3d011682016040523d82523d6000602084013e6125ce565b606091505b50915091506125df868383876125e9565b9695505050505050565b60608315612658578251600003612651576001600160a01b0385163b6126515760405162461bcd60e51b815260206004820152601d60248201527f416464726573733a2063616c6c20746f206e6f6e2d636f6e74726163740000006044820152606401610cee565b5081612081565b612081838381511561266d5781518083602001fd5b8060405162461bcd60e51b8152600401610cee91906134a1565b8280548282559060005260206000209081019282156126c2579160200282015b828111156126c25782358255916020019190600101906126a7565b50612109929150612709565b8280548282559060005260206000209081019282156126c2579160200282015b828111156126c25782518255916020019190600101906126ee565b5b80821115612109576000815560010161270a565b60006020828403121561273057600080fd5b81357fffffffff000000000000000000000000000000000000000000000000000000008116811461256a57600080fd5b6001600160a01b0381168114610de257600080fd5b60006020828403121561278757600080fd5b813561256a81612760565b602080825282518282018190526000919060409081850190868401855b828110156127e2578151805167ffffffffffffffff908116865290870151168685015292840192908501906001016127af565b5091979650505050505050565b6000806040838503121561280257600080fd5b823561280d81612760565b946020939093013593505050565b8015158114610de257600080fd5b600080600080848603608081121561284057600080fd5b853594506020808701359450603f198201121561285c57600080fd5b5060408501915060608501356128718161281b565b939692955090935050565b60008083601f84011261288e57600080fd5b50813567ffffffffffffffff8111156128a657600080fd5b6020830191508360208260061b85010111156128c157600080fd5b9250929050565b600080602083850312156128db57600080fd5b823567ffffffffffffffff8111156128f257600080fd5b6128fe8582860161287c565b90969095509350505050565b634e487b7160e01b600052602160045260246000fd5b60038110610de257634e487b7160e01b600052602160045260246000fd5b6020810161294b83612920565b91905290565b634e487b7160e01b600052604160045260246000fd5b604051601f8201601f1916810167ffffffffffffffff8111828210171561299057612990612951565b604052919050565b600067ffffffffffffffff8211156129b2576129b2612951565b50601f01601f191660200190565b600080604083850312156129d357600080fd5b82356129de81612760565b9150602083013567ffffffffffffffff8111156129fa57600080fd5b8301601f81018513612a0b57600080fd5b8035612a1e612a1982612998565b612967565b818152866020838501011115612a3357600080fd5b816020840160208301376000602083830101528093505050509250929050565b60008083601f840112612a6557600080fd5b50813567ffffffffffffffff811115612a7d57600080fd5b6020830191508360208260051b85010111156128c157600080fd5b60008060208385031215612aab57600080fd5b823567ffffffffffffffff811115612ac257600080fd5b6128fe85828601612a53565b60008060008060008060808789031215612ae757600080fd5b8635612af281612760565b9550602087013567ffffffffffffffff80821115612b0f57600080fd5b908801906040828b031215612b2357600080fd5b90955060408801359080821115612b3957600080fd5b818901915089601f830112612b4d57600080fd5b813581811115612b5c57600080fd5b8a602060a083028501011115612b7157600080fd5b602083019650809550506060890135915080821115612b8f57600080fd5b50612b9c89828a0161287c565b979a9699509497509295939492505050565b600060208284031215612bc057600080fd5b5035919050565b60005b83811015612be2578181015183820152602001612bca565b50506000910152565b60008151808452612c03816020860160208601612bc7565b601f01601f19169290920160200192915050565b600081518084526020808501808196508360051b8101915082860160005b858110156127e2578284038952815180516001600160a01b031685528581015186860152604090810151606091860182905290612c7481870183612beb565b9a87019a9550505090840190600101612c35565b6000610100871515835286151560208401528551612ca581612920565b80604085015250602086015167ffffffffffffffff80821660608601528060408901511660808601528060608901511660a086015250508060c0840152612cee81840186612c17565b9150508260e08301529695505050505050565b803560038110612d1057600080fd5b919050565b600080600080600080600060a0888a031215612d3057600080fd5b873567ffffffffffffffff80821115612d4857600080fd5b818a0191508a601f830112612d5c57600080fd5b813581811115612d6b57600080fd5b8b6020828501011115612d7d57600080fd5b60208301995080985050612d9360208b01612d01565b965060408a0135915080821115612da957600080fd5b50612db68a828b01612a53565b989b979a5095989597966060870135966080013595509350505050565b602080825282516001600160a01b0316828201528281015160408084015280516060840181905260009291820190839060808601905b80831015612e295783518252928401926001929092019190840190612e09565b509695505050505050565b634e487b7160e01b600052603260045260246000fd5b634e487b7160e01b600052601160045260246000fd5b600060018201612e7257612e72612e4a565b5060010190565b600060208284031215612e8b57600080fd5b81356004811061256a57600080fd5b8082018082111561087357610873612e4a565b67ffffffffffffffff81168114610de257600080fd5b600060208284031215612ed557600080fd5b813561256a81612ead565b67ffffffffffffffff818116838216019080821115612f0157612f01612e4a565b5092915050565b6000813563ffffffff8116811461087357600080fd5b813581556001810163ffffffff612f3760208501612f08565b16815467ffffffff00000000612f4f60408701612f08565b60201b166060860135612f6181612ead565b6fffffffffffffffff00000000000000008160401b16846fffffffffffffffffffffffffffffffff1985161783171785555050505050608082013560028201555050565b6000808335601e19843603018112612fbc57600080fd5b83018035915067ffffffffffffffff821115612fd757600080fd5b6020019150600581901b36038213156128c157600080fd5b600181811c9082168061300357607f821691505b60208210810361302357634e487b7160e01b600052602260045260246000fd5b50919050565b60008235605e1983360301811261303f57600080fd5b9190910192915050565b601f821115611e2e57600081815260208120601f850160051c810160208610156130705750805b601f850160051c820191505b81811015611c0e5782815560010161307c565b813561309a81612760565b6001600160a01b0381166001600160a01b031983541617825550600160208084013582840155600283016040850135601e198636030181126130db57600080fd5b8501803567ffffffffffffffff8111156130f457600080fd5b803603848301131561310557600080fd5b613119816131138554612fef565b85613049565b6000601f82116001811461314f576000831561313757508382018601355b600019600385901b1c1916600184901b1785556131a8565b600085815260209020601f19841690835b8281101561317f57868501890135825593880193908901908801613160565b508482101561319e5760001960f88660031b161c198885880101351681555b50508683881b0185555b505050505050505050565b81835281816020850137506000828201602090810191909152601f909101601f19169091010190565b60006001600160a01b0380881683528087166020840152508460408301526080606083015261320f6080830184866131b3565b979650505050505050565b60006020828403121561322c57600080fd5b815161256a8161281b565b60006020828403121561324957600080fd5b5051919050565b600067ffffffffffffffff808a1683526020818a1681850152604060a08186015261327f60a086018a8c6131b3565b606086820381880152818983528483019050848a60051b8401018b60005b8c81101561334257858303601f190184528135368f9003605e190181126132c357600080fd5b8e0180356132d081612760565b6001600160a01b0316845280890135898501528781013536829003601e190181126132fa57600080fd5b0188810190358a81111561330d57600080fd5b80360382131561331c57600080fd5b868986015261332e87860182846131b3565b958a0195945050509087019060010161329d565b50508097505050505050505082608083015298975050505050505050565b8381526060602082015260006133796060830185612c17565b9050826040830152949350505050565b600080604080848603121561339d57600080fd5b835167ffffffffffffffff808211156133b557600080fd5b818601915086601f8301126133c957600080fd5b81516020828211156133dd576133dd612951565b8160051b6133ec828201612967565b928352848101820192828101908b85111561340657600080fd5b83870192505b8483101561347b578251868111156134245760008081fd5b8701603f81018d136134365760008081fd5b84810151613446612a1982612998565b8181528e8b83850101111561345b5760008081fd5b61346a828883018d8601612bc7565b84525050918301919083019061340c565b9990920151989a9899505050505050505050565b6000825161303f818460208701612bc7565b60208152600061256a6020830184612beb56fe416464726573733a206c6f772d6c6576656c2064656c65676174652063616c6c206661696c6564a164736f6c6343000811000a",
  "devdoc": {
    "kind": "dev",
    "methods": {
      "implementation()": {
        "details": "The implementation can be instantiated via the `new` keyword, cloned via the minimal clones pattern (see [ERC-1167](https://eips.ethereum.org/EIPS/eip-1167)), or proxied via the UUPS pattern (see [ERC-1822](https://eips.ethereum.org/EIPS/eip-1822)).",
        "returns": {
          "_0": "The address of the plugin implementation contract."
        }
      },
      "prepareInstallation(address,bytes)": {
        "params": {
          "_dao": "The address of the installing DAO.",
          "_data": "The bytes-encoded data containing the input parameters for the installation as specified in the plugin's build metadata JSON file."
        },
        "returns": {
          "plugin": "The address of the `Plugin` contract being prepared for installation.",
          "preparedSetupData": "The deployed plugin's relevant data which consists of helpers and permissions."
        }
      },
      "prepareUninstallation(address,(address,address[],bytes))": {
        "params": {
          "_dao": "The address of the uninstalling DAO.",
          "_payload": "The relevant data necessary for the `prepareUninstallation`. see above."
        },
        "returns": {
          "permissions": "The array of multi-targeted permission operations to be applied by the `PluginSetupProcessor` to the uninstalling DAO."
        }
      },
      "prepareUpdate(address,uint16,(address,address[],bytes))": {
        "params": {
          "_currentBuild": "The build number of the plugin to update from.",
          "_dao": "The address of the updating DAO.",
          "_payload": "The relevant data necessary for the `prepareUpdate`. see above."
        },
        "returns": {
          "initData": "The initialization data to be passed to upgradeable contracts when the update is applied in the `PluginSetupProcessor`.",
          "preparedSetupData": "The deployed plugin's relevant data which consists of helpers and permissions."
        }
      },
      "supportsInterface(bytes4)": {
        "params": {
          "_interfaceId": "The ID of the interface."
        },
        "returns": {
          "_0": "Returns `true` if the interface is supported."
        }
      }
    },
    "version": 1
  },
  "userdoc": {
    "kind": "user",
    "methods": {
      "implementation()": {
        "notice": "Returns the plugin implementation address."
      },
      "prepareInstallation(address,bytes)": {
        "notice": "Prepares the installation of a plugin."
      },
      "prepareUninstallation(address,(address,address[],bytes))": {
        "notice": "Prepares the uninstallation of a plugin."
      },
      "prepareUpdate(address,uint16,(address,address[],bytes))": {
        "notice": "Prepares the update of a plugin."
      },
      "supportsInterface(bytes4)": {
        "notice": "Checks if this or the parent contract supports an interface by its ID."
      }
    },
    "version": 1
  },
  "storageLayout": {
    "storage": [],
    "types": null
  }
}